:020000040800F2
:10000000D006002029020008071500085911000831
:1000100005150008D9040008991500080000000023
:100020000000000000000000000000000B150008A8
:10003000DB04000800000000091500080D15000889
:10004000430200084302000843020008430200087C
:10005000430200084302000843020008430200086C
:10006000430200084302000843020008430200085C
:10007000430200084302000843020008430200084C
:10008000430200084302000843020008430200083C
:10009000430200084302000843020008430200082C
:1000A000430200084302000843020008430200081C
:1000B000430200084302000843020008430200080C
:1000C00043020008430200084302000843020008FC
:1000D00043020008430200084302000843020008EC
:1000E00043020008430200084302000843020008DC
:1000F00043020008430200084302000843020008CC
:1001000043020008430200084302000843020008BB
:1001100043020008430200084302000843020008AB
:10012000430200084302000843020008430200089B
:10013000430200084302000843020008430200088B
:10014000430200084302000843020008430200087B
:10015000430200084302000843020008430200086B
:10016000430200084302000843020008430200085B
:100170004302000843020008430200080000000098
:10018000430200084302000800F002F800F03CF8C7
:100190000AA090E8000C82448344AAF10107DA45E2
:1001A00001D100F031F8AFF2090EBAE80F0013F0F8
:1001B000010F18BFFB1A43F0010318477C1400001D
:1001C0009C140000103A24BF78C878C1FAD85207AE
:1001D00024BF30C830C144BF04680C6070470000C1
:1001E0000023002400250026103A28BF78C1FBD840
:1001F000520728BF30C148BF0B6070471FB501F0E0
:1002000009FA1FBD10B510BD00F0CFF81146FFF779
:10021000F5FF01F0D3F900F0EDF803B4FFF7F2FFBA
:1002200003BC00F0F5F80000094880470948004782
:10023000FEE7FEE7FEE7FEE7FEE7FEE7FEE7FEE796
:10024000FEE7FEE704480549054A064B70470000F3
:100250008915000889010008D0000020D006002080
:10026000D0020020D002002053EA020C00F0698086
:100270002DE9F04B4FF00006002B1FBFB3FA83F5BA
:1002800003FA05F424FA05F65E4012BF1643B2FAEB
:1002900082F502FA05F4C5F120051EBF22FA05FC1D
:1002A00044EA0C04203556EA044C4FEA144418BFC3
:1002B000641C4FF000084FF00009904271EB030CF2
:1002C00039D3002919BFB1FA81F701FA07F6B0FA5C
:1002D00080F700FA07F6C7F120071EBF20FA07FCD7
:1002E00046EA0C062037B6FBF4FCA7EB0507103FE7
:1002F00007F01F0BCBF120060CFA0BFB2CFA06F6CD
:1003000044BFB3460026202FA4BF5E464FF0000B2B
:100310005BEA060C08BF4FF0010B19EB0B09ABFBB6
:10032000027C48EB0608C01B06FB02CC0BFB03CC8F
:1003300071EB0C01C1E70B46024641464846BDE859
:10034000F08B13B54FF000004FF00001AFF30080C9
:10035000BDE81C4070474FF0000200B513469446BC
:100360009646203922BFA0E80C50A0E80C50B1F10D
:100370002001BFF4F7AF090728BFA0E80C5048BF21
:100380000CC05DF804EB890028BF40F8042B08BFBF
:10039000704748BF20F8022B11F0804F18BF00F8BB
:1003A000012B7047704770477047754600F02CF876
:1003B000AE4605006946534620F00700854618B052
:1003C00020B5FFF73FFFBDE820404FF000064FF09B
:1003D00000074FF000084FF0000B21F00701AC467A
:1003E000ACE8C009ACE8C009ACE8C009ACE8C00999
:1003F0008D46704710B50446AFF300802046BDE837
:100400001040FFF70ABF000000487047700000204E
:1004100001491820ABBEFEE726000200704700002D
:100420001FB50121642203A88DE807000B461A229C
:100430006C21044800F028FA03499DF80C0048702C
:1004400004B010BD1C000020000000201FB5642275
:10045000022103A88DE8070001231B226C21054817
:1004600000F012FABDF80C00034940BA888004B0CD
:1004700010BD00001C000020000000201FB56422F9
:10048000022103A88DE8070001230C226C210548F6
:1004900000F0FAF9BDF80C00034940BA488004B0F6
:1004A00010BD00001C000020000000201FB501212D
:1004B000642203A88DE807000B460B226C21044838
:1004C00000F0E2F903499DF80C00087004B010BD7B
:1004D0001C00002000000020FEE7704772B6FEE717
:1004E00070B5044600F006F90546601C02D00448C9
:1004F0000078044400F0FEF8401BA042FAD370BD1F
:100500000C0000202DE9F84FDFF8BCA100220125E6
:1005100003264FF00F090AF1040BAAF1040E00BFE5
:100520000B6805FA02F42340A34270D10F7907F05B
:100530000307012F01D0022F16D187684FEA420826
:1005400006FA08FC27EA0C07D1F80CC00CFA08FCE4
:100550004CEA070CC0F808C04768A7430C79C4F3FD
:10056000001494403C4344600C79E443A4070AD04F
:10057000C4684FEA420C06FA0CF7BC438F6807FACE
:100580000CF72743C7600C7904F00304022C12D146
:10059000D40800EB840CDCF820405707FF0E09FA62
:1005A00007F824EA0804D1F8108008FA07F848EAA6
:1005B0000408CCF8208004684FEA420C06FA0CF7D5
:1005C000BC430F7907F0030707FA0CF727430760CE
:1005D0004C6814F4403F70D03C4C276847F4804787
:1005E0002760246822F0030704F480440094384C08
:1005F00007EB040CDCF8084897074FEA177809FA6C
:1006000008F7BC43334FB84202D1002724E054E03E
:10061000314FB84201D101271EE0304FB84201D11D
:10062000022719E02E4FB84201D1032714E02D4FC5
:10063000B84201D104270FE02B4FB84201D1052762
:100640000AE02A4FB84201D1062705E0284FB842F8
:1006500001D1072700E0082707FA08F72743CCF85D
:100660000878DAF800405746D1F804C09C435FEAA6
:10067000CC2C00D51C433C60DBF800405F46D1F831
:1006800004C09C435FEA8C2C00D51C433C60DEF820
:1006900000407746D1F804C09C435FEA8C3C00D50B
:1006A0001C433C60084F083F3C68D1F804C09C43A1
:1006B0005FEACC3C00D51C433C60521C102AFFF47E
:1006C0002FAFBDE8F88F0000083C014044380240DD
:1006D00000300140000002400004024000080240D7
:1006E000000C0240001002400014024000180240BA
:1006F000001C024001488068704700000C00002088
:1007000070B5040025D094F83D00002520B984F888
:100710003C50204600F0BAF9242084F83D002068BF
:10072000016821F0010101602068016841F4004185
:1007300001602068016821F40041016000F000FBC5
:100740004D4A6168914201D84C4900E04C498842C9
:1007500001D2012070BD4B492368B0FBF1F15E6806
:1007600026F03F060E435E606368934206D94FF45D
:10077000967359434FF47A73B1FBF3F12368491C24
:100780001E6A26F03F06314319626168914210D813
:100790004900401EB0FBF1F2521CC2F30B02042AC6
:1007A00001D2042022E0B0FBF1F0401CC0F30B00AA
:1007B0001CE0A268F2B301EBC10303EB0116431E78
:1007C000B3FBF6F35B1C43F480431B0549D092B3A3
:1007D00001EBC10202EB0111401EB0FBF1F0401C25
:1007E000C0F30B0040F4804040F400402168CA6927
:1007F0004CF6FF739A431043C861D4E907100143D4
:100800002068026822F0C00211430160D4E90301AC
:1008100001432068826848F2FF339A4311438160A4
:10082000D4E9050108432168CA6822F0FF02104399
:10083000C86001E00EE016E02068016841F00101A7
:1008400001602564202084F83D00256384F83E5033
:10085000002070BD01EB4106431EB3FBF6F35B1CA9
:10086000B3E70120C2E701EB4101401EB0FBF1F00C
:10087000401CC0F30B00B7E7A086010080841E0077
:1008800000093D0040420F002DE9FF4F83B09A461A
:10089000DDE9118793460446DDF84090FFF72AFF13
:1008A000054694F83D00202870D11923012274498F
:1008B0002046009500F0E6FC0028F5D194F83C00B5
:1008C000012863D0012084F83C0020680168C90732
:1008D00003D1016841F0010101602068016821F441
:1008E00000610160222084F83D00402084F83E0031
:1008F00000262664C4F82490A4F82A80608D208500
:100900006048E062CDE9007553465A462046049996
:1009100000F03AFC002879D1208DD0B1012821D0F7
:100920000228206824D0416980690090208D032826
:1009300066D801282BD0544902283B464FF00002CC
:10094000009557D08846204600F09CFC00285DD1D9
:100950003AE02068416981690091016841F40071C1
:1009600001607DE02068016821F480610160F0E7AA
:10097000016821F4806101602068016841F4006130
:100980000160206841698069009069E075E02A464D
:100990003946204600F01CFD88BB54E02068016801
:1009A00041F40071016020680069616A0870606A42
:1009B000401C6062218D491E2185618D491E618523
:1009C00021680969017042E02068016821F48061B2
:1009D000016020680069616A0870606A401C60629A
:1009E000208D401E2085608D401E60853B46002284
:1009F00041460095204600F045FC00B9CEE705E0F1
:100A00002A463946204600F0E3FC18B1012007B021
:100A1000BDE8F08F20680069616A0870606A401C58
:100A20006062208D401E81B22185608D401E6085F0
:100A300020684269D243520712D4032903D10168C6
:100A400021F48061016020680069616A0870606A51
:100A5000401C6062208D401E2085608D401E608598
:100A6000208D00287FF462AF202084F83D0084F8B8
:100A70003E6084F83C600020C9E70220C7E7000020
:100A8000020010000000FFFF0400010010B586B056
:100A9000044614216846FFF75EFC1349206888422B
:100AA00020D112480021026842F002020260006870
:100AB00000F002000590C02000901220CDE9010155
:100AC000032003900420049069460948FFF71AFDAB
:100AD00006481030016841F400110160006800F41C
:100AE0000010059006B010BD0054004030380240A0
:100AF0000004024002488168027811448160704716
:100B00000C0000200B4810B5016841F40071016031
:100B1000016841F480610160016841F48071016005
:100B2000032000F061F80F2000F006F800F024F830
:100B3000002010BD003C024070B50D4D04464FF43E
:100B40007A712878B1FBF0F00A490968B1FBF0F03E
:100B500000F0EEFA48B9102C07D200222146501EB0
:100B600000F022F800206C6070BD012070BD000014
:100B70000C000020180000200A4808B5016841F464
:100B800080410160006800F4804000900548001F2B
:100B9000016841F080510160006800F080500090D1
:100BA00008BD000044380240F0B40E4B1B680C46F0
:100BB000C3F30223C3F10705042D00D90425191D31
:100BC000072901D2002300E0DB1E012606FA05F109
:100BD000491E214099409E40761E16403143F0BC8C
:100BE00000F0DBBC0CED00E0064900F007020868ED
:100BF0004FF6FF03184040EA0220034A1043086002
:100C0000704700000CED00E00000FA052DE9F04708
:100C10000E46050065D0DFF81481D8F80000F7B261
:100C200000F00700B04207D288F80070D8F8000042
:100C300000F00700B04254D128683D4C810712D51E
:100C4000400703D5206840F4E05020602878000772
:100C500003D5206840F4604020602068A96820F037
:100C6000F000084320602878C0072DD0304968681C
:100C70000839012812D0022813D0032811D009689E
:100C8000890700292DDA216821F003010143216041
:100C9000FFF730FD814641F2883A0EE0096889038A
:100CA000EFE709688901ECE7FFF724FDA0EB0901F4
:100CB000514502D90320BDE8F0872068696800F03B
:100CC0000C00B0EB810FEFD1D8F80010404601F0D6
:100CD0000701B14207D90770006800F00700B04271
:100CE00001D00120E7E72878400705D52068E968AA
:100CF00020F4E050084320602878000706D52068DB
:100D0000296920F4604040EAC100206000F028F822
:100D10002168084AC1F30311515CC84006490860C4
:100D200006480068FFF708FF0020C4E7003C0240C7
:100D3000083802401E16000818000020100000208D
:100D40000448054900680968044AC1F38221515CDE
:100D5000C840704718000020083802402E160008CE
:100D6000154810B5006810F00C02144813D014494F
:100D7000042A0FD0082A0ED10F4C241F22682368A2
:100D800002F03F025B0207D52068C0F38810A0FB89
:100D9000010106E0084610BD2168C1F38811A1FBDE
:100DA00000010023FFF760FA2168C1F30141491CEB
:100DB0004900B0FBF1F010BD083802400024F400F7
:100DC00040787D012DE9F84F04006ED02078DFF8DF
:100DD0004C93C007A9F104054AD009F10400016849
:100DE000C1F38101012908D00068C0F38100022805
:100DF0000AD1D9F80000400206D52868800337D50B
:100E000060680028E1D033E06068B0F5803F10D022
:100E1000B0F5A02F286810D020F480302860286812
:100E200020F4802028606068A8B1FFF763FC0646C4
:100E30000DE0286840F48030F4E740F4802028601A
:100E4000F7E700BFFFF756FC801B642873D82868BB
:100E50008003F7D50CE0FFF74DFC064605E000BF28
:100E6000FFF748FC801B6428F0D828688003F7D47B
:100E70002078DFF8AC8280074FF0000A3ED5A74803
:100E8000001D016811F00C0F08D00068C0F381004C
:100E900002280BD1D9F80000400207D42868800747
:100EA00016D5E068012800D112E033E1E068B8B15E
:100EB0000120C8F80000FFF71DFC064605E000BF52
:100EC000FFF718FC801B0228C0D828688007F7D5D8
:100ED0002868216920F0F80040EAC10028600DE090
:100EE000C8F800A0FFF706FC064604E0FFF702FC86
:100EF000801B02281FD828688007F7D420780007B5
:100F000022D5864F87486169703771B10121016030
:100F1000FFF7F0FB064604E0FFF7ECFB801B02281E
:100F200009D838688007F7D50EE0C0F800A0FFF7B1
:100F3000E1FB064605E082E0FFF7DCFB801B0228B0
:100F40007DD838688007F7D42078400768D5DFF867
:100F5000CCB100270BF13C0BDBF80000C0000BD438
:100F6000DBF8001041F08051CBF80010DBF80000F6
:100F7000012700F0805000906B4E3068C00510D4FF
:100F8000306840F480703060FFF7B4FB009005E0FB
:100F9000FFF7B0FB0099401A022850D83068C0050E
:100FA000F6D55E4EA0686C3601280FD00528306853
:100FB00010D020F001003060306820F00400306074
:100FC000A068B8B1FFF796FB00900FE0306840F0E2
:100FD0000100F4E740F004003060F7E7FFF78AFB18
:100FE0000099411A41F28830814266D83068800702
:100FF000F4D50EE0FFF77EFB009007E0FFF77AFBE9
:101000000099411A41F28830814256D830688007F1
:10101000F4D42FB1DBF8001021F08051CBF8001090
:10102000A069C8B33D49091D0968C1F381010229BE
:101030004AD00228504607D0C8F8600000E03CE0E3
:10104000FFF758FB04463BE04746C8F86000FFF74F
:1010500051FB064605E000BFFFF74CFB801B022852
:101060002BD828688001F7D4D4E907010843A16A86
:101070002E4A490802EB0141626A41EA82110843A3
:1010800094F82C1040EA0161C9F80010012038667C
:10109000FFF730FB044606E03EE000BFFFF72AFB07
:1010A000001B022809D828688001F7D534E000BF6A
:1010B000FFF720FB001B022802D90320BDE8F88FB0
:1010C00028688001F4D427E00128F7D0D9F800007F
:1010D000E26900F4800191421CD1226A00F03F01D4
:1010E000914217D147F6C071626A0140B1EB821F8D
:1010F00010D1A26A4FF0FF3300F4403103EB5202EB
:10110000B1EB024F06D194F82C1000F07060B0EBF8
:10111000016F01D00120D1E70020CFE70438024061
:1011200000004742800E4742007000400000FFFF71
:1011300010B5401EB0F1807F01D3012010BD4FF0EB
:10114000E02460610F21601700F027FA0020A06101
:1011500007202061002010BDFEE701684A69D243E4
:1011600052050FD46FF480624A61002140F8301FAD
:10117000202242738173026942F00402026101730A
:1011800001207047002070472DE9F84F04460068A1
:1011900089460B9D01689846174641F480610160BD
:1011A0002068016841F48071016000954FF0011BD7
:1011B0000022594620460A9B00F064F84FF4007A5A
:1011C00040B120680068C00501D5C4F840A00320E4
:1011D000BDE8F88F216809F0FE0008612B46284918
:1011E00020460A9A00F096F8F0BB206841698069B1
:1011F00000902A4620460A9900F022F940B1206C5E
:1012000004283AD12068016841F40071016034E09B
:10121000FEB2B8F1010F09D02168380A08612A46E8
:1012200020460A9900F00CF90028E8D120680661F0
:101230002A4620460A9900F003F90028DFD12068E9
:10124000016841F4807101600095002259462046F2
:101250000A9B00F017F80028B3D1216809F0FF00BD
:1012600040F00100086100E007E02B4604492046F9
:101270000A9A00F04FF80028AAD00120A8E7000041
:10128000020001002DE9F047984617460D46044636
:10129000C1F30746DDF820902AE000BFB8F1FF3F18
:1012A00026D0FFF727FAA0EB0901414502D8B8F193
:1012B000000F1DD12068012E16D0806925EA00009C
:1012C0000004000C12D00020B84211D1002044F8D4
:1012D000300F20216173A073216941F02001216149
:1012E00020730120BDE8F0874069E7E70120EBE7C4
:1012F0002068012E0AD0806925EA00000004000C55
:1013000006D00020B842C9D00020EBE74069F3E7DF
:101310000120F7E72DE9F047984616460D460446AA
:101320004FF000094FF0200AC1F3074723E020687F
:101330004069C043400515D42068016841F400713C
:10134000016021686FF480604861C4F8309084F8CF
:101350003DA084F83E90216C41F00401216484F8A2
:101360003C9021E0701C06D0FFF7C4F9A0EB080008
:10137000B04203D816B1012F1FD021E02068012F01
:1013800015D0806925EA00000004000C18D000BFC9
:1013900044F8309F84F80DA084F80E90216941F044
:1013A0002001216184F80C900120BDE8F08740699C
:1013B00025EA00000004000CEAD12068406901E041
:1013C0002068806925EA00000004000CAFD1ECE73A
:1013D0002DE9F041002590460E460446202728E0DE
:1013E0004069C043C0060CD454F8301B6FF01000A5
:1013F000486144F810596777A577206A20622577FD
:1014000014E0FFF777F9A0EB0800B04200D886B9E6
:1014100020684069C04340060BD544F8305F6773CD
:10142000A573206940F02000206125730120BDE8EC
:10143000F08120684169C9434906D1D40020F6E70C
:1014400070B516460D4604461EE02046FFF785FEA1
:1014500008B1012070BD681C16D0FFF74BF9801B46
:10146000A84200D885B920684069C04300060BD562
:10147000002044F8300F20216173A073216941F0EE
:10148000200121612073E4E720684069C043000621
:10149000DBD4002070BD0000094808B5016841F0A8
:1014A00080010160016801F080010091016841F054
:1014B00002010160006800F00200009008BD000019
:1014C000303802400D4810B50B4901600C494160AD
:1014D00000214FF480428160C0E9031241618161C3
:1014E000C1610162FFF70CF9002803D0BDE810408C
:1014F000FEF7F4BF10BD0000005400401C000020A7
:10150000A0860100FEE7FEE770477047FFF7F2BADA
:1015100030B593B030216846FEF71DFF14210CA8AA
:10152000FEF719FF16480024016841F08051016060
:10153000006800F0805011901248016841F4804129
:1015400001600068012500F4804011902804069491
:10155000CDE900506846FFF735FC08B172B6FEE7EA
:101560000F200C90CDE90D540F9400210CA810947D
:10157000FFF74CFB002801D072B6FEE713B030BD78
:1015800040380240007000400248016841F4700198
:101590000160704788ED00E0FEE70907090E0028AA
:1015A00004DB00F1E02080F80014704700F00F0029
:1015B00000F1E02080F8141D704700002DED028B33
:1015C000FFF7A0FAFFF7A4FFFFF766FFFFF77AFF28
:1015D0009FED0D8ADFED0D8A0D4C00BFFEF766FF13
:1015E000FEF71EFFFEF732FFFEF748FF00EE100A7F
:1015F0003220B8EE400A20EE080AC0EE280AC4EDF8
:10160000020AFEF76DFFE9E70000B44300F07F45F2
:10161000000000204FF04070E1EE100A704700001B
:101620000000000000000102030406070809000092
:10163000000001020304000058160008000000200A
:101640001C000000C4010008741600081C000020E3
:10165000B4060000E00100080000000000000000E7
:101660000000000001000000100000000000000069
:041670000024F4005E
:040000050800018965
:00000001FF
